{
  "contractName": "BridgeBSC",
  "abi": [
    {
      "inputs": [
        {
          "internalType": "address",
          "name": "_token",
          "type": "address"
        }
      ],
      "stateMutability": "nonpayable",
      "type": "constructor"
    },
    {
      "anonymous": false,
      "inputs": [
        {
          "indexed": false,
          "internalType": "address",
          "name": "from",
          "type": "address"
        },
        {
          "indexed": false,
          "internalType": "address",
          "name": "to",
          "type": "address"
        },
        {
          "indexed": false,
          "internalType": "uint256",
          "name": "amount",
          "type": "uint256"
        },
        {
          "indexed": false,
          "internalType": "uint256",
          "name": "nonce",
          "type": "uint256"
        },
        {
          "indexed": false,
          "internalType": "uint256",
          "name": "date",
          "type": "uint256"
        },
        {
          "indexed": false,
          "internalType": "bytes",
          "name": "signature",
          "type": "bytes"
        },
        {
          "indexed": true,
          "internalType": "enum Bridge.BridgeSteps",
          "name": "step",
          "type": "uint8"
        }
      ],
      "name": "Transfer",
      "type": "event"
    },
    {
      "inputs": [],
      "name": "admin",
      "outputs": [
        {
          "internalType": "address",
          "name": "",
          "type": "address"
        }
      ],
      "stateMutability": "view",
      "type": "function",
      "constant": true
    },
    {
      "inputs": [
        {
          "internalType": "address",
          "name": "_to",
          "type": "address"
        },
        {
          "internalType": "uint256",
          "name": "_amount",
          "type": "uint256"
        },
        {
          "internalType": "uint256",
          "name": "_nonce",
          "type": "uint256"
        },
        {
          "internalType": "bytes",
          "name": "_signature",
          "type": "bytes"
        }
      ],
      "name": "burn",
      "outputs": [],
      "stateMutability": "nonpayable",
      "type": "function"
    },
    {
      "inputs": [],
      "name": "configToken",
      "outputs": [
        {
          "internalType": "contract ITokenConfig",
          "name": "",
          "type": "address"
        }
      ],
      "stateMutability": "view",
      "type": "function",
      "constant": true
    },
    {
      "inputs": [
        {
          "internalType": "address",
          "name": "_from",
          "type": "address"
        },
        {
          "internalType": "address",
          "name": "_to",
          "type": "address"
        },
        {
          "internalType": "uint256",
          "name": "_amount",
          "type": "uint256"
        },
        {
          "internalType": "uint256",
          "name": "_nonce",
          "type": "uint256"
        },
        {
          "internalType": "bytes",
          "name": "_signature",
          "type": "bytes"
        }
      ],
      "name": "mint",
      "outputs": [],
      "stateMutability": "nonpayable",
      "type": "function"
    },
    {
      "inputs": [
        {
          "internalType": "address",
          "name": "",
          "type": "address"
        },
        {
          "internalType": "uint256",
          "name": "",
          "type": "uint256"
        }
      ],
      "name": "processedTxNonce",
      "outputs": [
        {
          "internalType": "bool",
          "name": "",
          "type": "bool"
        }
      ],
      "stateMutability": "view",
      "type": "function",
      "constant": true
    }
  ],
  "bytecode": "0x60806040523480156200001157600080fd5b5060405162001095380380620010958339818101604052810190620000379190620000bc565b803373ffffffffffffffffffffffffffffffffffffffff1660008054906101000a9050505080600160006101000a81548173ffffffffffffffffffffffffffffffffffffffff021916908373ffffffffffffffffffffffffffffffffffffffff160217905550505062000141565b600081519050620000b68162000127565b92915050565b600060208284031215620000d557620000d462000122565b5b6000620000e584828501620000a5565b91505092915050565b6000620000fb8262000102565b9050919050565b600073ffffffffffffffffffffffffffffffffffffffff82169050919050565b600080fd5b6200013281620000ee565b81146200013e57600080fd5b50565b610f4480620001516000396000f3fe608060405234801561001057600080fd5b50600436106100575760003560e01c80633ae73dc11461005c578063525557021461008c5780638650feb4146100a85780638a94b05f146100c6578063f851a440146100e2575b600080fd5b6100766004803603810190610071919061089c565b610100565b6040516100839190610bde565b60405180910390f35b6100a660048036038101906100a19190610802565b61012f565b005b6100b061041e565b6040516100bd9190610c3e565b60405180910390f35b6100e060048036038101906100db91906108dc565b610444565b005b6100ea610640565b6040516100f79190610b30565b60405180910390f35b60026020528160005260406000206020528060005260406000206000915091509054906101000a900460ff1681565b60006101668787878760405160200161014b9493929190610abc565b60405160208183030381529060405280519060200120610664565b90508673ffffffffffffffffffffffffffffffffffffffff166101cd8285858080601f016020809104026020016040519081016040528093929190818152602001838380828437600081840152601f19601f82011690508083019250505050505050610694565b73ffffffffffffffffffffffffffffffffffffffff1614610223576040517f08c379a000000000000000000000000000000000000000000000000000000000815260040161021a90610c99565b60405180910390fd5b60001515600260008973ffffffffffffffffffffffffffffffffffffffff1673ffffffffffffffffffffffffffffffffffffffff168152602001908152602001600020600086815260200190815260200160002060009054906101000a900460ff161515146102c7576040517f08c379a00000000000000000000000000000000000000000000000000000000081526004016102be90610c79565b60405180910390fd5b6001600260008973ffffffffffffffffffffffffffffffffffffffff1673ffffffffffffffffffffffffffffffffffffffff168152602001908152602001600020600086815260200190815260200160002060006101000a81548160ff021916908315150217905550600160009054906101000a900473ffffffffffffffffffffffffffffffffffffffff1673ffffffffffffffffffffffffffffffffffffffff166379c6506887876040518363ffffffff1660e01b815260040161038d929190610bb5565b600060405180830381600087803b1580156103a757600080fd5b505af11580156103bb573d6000803e3d6000fd5b505050506001808111156103d2576103d1610db0565b5b7fce5a9b86edd3b998c3948a7934c7ecf7dba73c4c5bcf56cf576bca4aa2beeb308888884289898960405161040d9796959493929190610b4b565b60405180910390a250505050505050565b600160009054906101000a900473ffffffffffffffffffffffffffffffffffffffff1681565b8260001515600260003373ffffffffffffffffffffffffffffffffffffffff1673ffffffffffffffffffffffffffffffffffffffff168152602001908152602001600020600083815260200190815260200160002060009054906101000a900460ff161515146104e9576040517f08c379a00000000000000000000000000000000000000000000000000000000081526004016104e090610c79565b60405180910390fd5b6001600260003373ffffffffffffffffffffffffffffffffffffffff1673ffffffffffffffffffffffffffffffffffffffff168152602001908152602001600020600083815260200190815260200160002060006101000a81548160ff021916908315150217905550600160009054906101000a900473ffffffffffffffffffffffffffffffffffffffff1673ffffffffffffffffffffffffffffffffffffffff1663d1df306c33876040518363ffffffff1660e01b81526004016105af929190610bb5565b600060405180830381600087803b1580156105c957600080fd5b505af11580156105dd573d6000803e3d6000fd5b50505050600060018111156105f5576105f4610db0565b5b7fce5a9b86edd3b998c3948a7934c7ecf7dba73c4c5bcf56cf576bca4aa2beeb30338888884289896040516106309796959493929190610b4b565b60405180910390a2505050505050565b60008054906101000a900473ffffffffffffffffffffffffffffffffffffffff1681565b6000816040516020016106779190610b0a565b604051602081830303815290604052805190602001209050919050565b6000806000806106a385610709565b809350819450829550505050600186848484604051600081526020016040526040516106d29493929190610bf9565b6020604051602081039080840390855afa1580156106f4573d6000803e3d6000fd5b50505060206040510351935050505092915050565b60008060006041845114610752576040517f08c379a000000000000000000000000000000000000000000000000000000000815260040161074990610c59565b60405180910390fd5b60008060006020870151915060408701519050606087015160001a92508282829550955095505050509193909250565b60008135905061079181610ee0565b92915050565b60008083601f8401126107ad576107ac610de4565b5b8235905067ffffffffffffffff8111156107ca576107c9610ddf565b5b6020830191508360018202830111156107e6576107e5610de9565b5b9250929050565b6000813590506107fc81610ef7565b92915050565b60008060008060008060a0878903121561081f5761081e610df3565b5b600061082d89828a01610782565b965050602061083e89828a01610782565b955050604061084f89828a016107ed565b945050606061086089828a016107ed565b935050608087013567ffffffffffffffff81111561088157610880610dee565b5b61088d89828a01610797565b92509250509295509295509295565b600080604083850312156108b3576108b2610df3565b5b60006108c185828601610782565b92505060206108d2858286016107ed565b9150509250929050565b6000806000806000608086880312156108f8576108f7610df3565b5b600061090688828901610782565b9550506020610917888289016107ed565b9450506040610928888289016107ed565b935050606086013567ffffffffffffffff81111561094957610948610dee565b5b61095588828901610797565b92509250509295509295909350565b61096d81610ce6565b82525050565b61098461097f82610ce6565b610d78565b82525050565b61099381610cf8565b82525050565b6109a281610d04565b82525050565b6109b96109b482610d04565b610d8a565b82525050565b60006109cb8385610cb9565b93506109d8838584610d69565b6109e183610df8565b840190509392505050565b6109f581610d45565b82525050565b6000610a08601183610cca565b9150610a1382610e16565b602082019050919050565b6000610a2b601c83610cdb565b9150610a3682610e3f565b601c82019050919050565b6000610a4e602383610cca565b9150610a5982610e68565b604082019050919050565b6000610a71600f83610cca565b9150610a7c82610eb7565b602082019050919050565b610a9081610d2e565b82525050565b610aa7610aa282610d2e565b610da6565b82525050565b610ab681610d38565b82525050565b6000610ac88287610973565b601482019150610ad88286610973565b601482019150610ae88285610a96565b602082019150610af88284610a96565b60208201915081905095945050505050565b6000610b1582610a1e565b9150610b2182846109a8565b60208201915081905092915050565b6000602082019050610b456000830184610964565b92915050565b600060c082019050610b60600083018a610964565b610b6d6020830189610964565b610b7a6040830188610a87565b610b876060830187610a87565b610b946080830186610a87565b81810360a0830152610ba78184866109bf565b905098975050505050505050565b6000604082019050610bca6000830185610964565b610bd76020830184610a87565b9392505050565b6000602082019050610bf3600083018461098a565b92915050565b6000608082019050610c0e6000830187610999565b610c1b6020830186610aad565b610c286040830185610999565b610c356060830184610999565b95945050505050565b6000602082019050610c5360008301846109ec565b92915050565b60006020820190508181036000830152610c72816109fb565b9050919050565b60006020820190508181036000830152610c9281610a41565b9050919050565b60006020820190508181036000830152610cb281610a64565b9050919050565b600082825260208201905092915050565b600082825260208201905092915050565b600081905092915050565b6000610cf182610d0e565b9050919050565b60008115159050919050565b6000819050919050565b600073ffffffffffffffffffffffffffffffffffffffff82169050919050565b6000819050919050565b600060ff82169050919050565b6000610d5082610d57565b9050919050565b6000610d6282610d0e565b9050919050565b82818337600083830152505050565b6000610d8382610d94565b9050919050565b6000819050919050565b6000610d9f82610e09565b9050919050565b6000819050919050565b7f4e487b7100000000000000000000000000000000000000000000000000000000600052602160045260246000fd5b600080fd5b600080fd5b600080fd5b600080fd5b600080fd5b6000601f19601f8301169050919050565b60008160601b9050919050565b7f696e76616c6964207369676e6174757265000000000000000000000000000000600082015250565b7f19457468657265756d205369676e6564204d6573736167653a0a333200000000600082015250565b7f7472616e736665722068617320616c7265616479206265656e2070726f63657360008201527f7365640000000000000000000000000000000000000000000000000000000000602082015250565b7f77726f6e67207369676e61747572650000000000000000000000000000000000600082015250565b610ee981610ce6565b8114610ef457600080fd5b50565b610f0081610d2e565b8114610f0b57600080fd5b5056fea2646970667358221220aca4884f3820cc2217f57a17bc33fe5ce5db5539fe1ae414a9826ca90ad4c0c064736f6c63430008060033",
  "immutableReferences": {},
  "source": "pragma solidity ^0.8.6;\r\n\r\nimport \"./Bridge.sol\";\r\n\r\ncontract BridgeBSC is Bridge {\r\n    constructor(address _token) Bridge(_token) {}\r\n}\r\n",
  "sourcePath": "C:/Users/victo/solidityGH/ETHBSCBridge/Decentralised-Cross-Chain-Bridge/contracts/BridgeBSC.sol",
  "compiler": {
    "name": "solc",
    "version": "0.8.6+commit.11564f7e.Emscripten.clang"
  },
  "schemaVersion": "3.4.1",
  "updatedAt": "2021-07-22T14:16:52.720Z",
  "networkType": "ethereum",
  "devdoc": {
    "kind": "dev",
    "methods": {},
    "version": 1
  },
  "userdoc": {
    "kind": "user",
    "methods": {},
    "version": 1
  }
}